:1000000096C00000AFC00000ADC00000ABC0000053
:10001000A9C00000A7C00000A5C00000A3C0000048
:10002000A1C000009FC000009DC00000F2C1000000
:1000300099C0000097C0000095C0000093C0000068
:1000400091C000008FC000008DC000008BC0000078
:1000500089C0000087C0000085C0000083C0000088
:1000600081C000007FC000007DC000007BC0000098
:1000700079C000001201100102000008C016DC2740
:1000800001000102030109023E00030100C0320920
:1000900004000001020201000524001001042402F2
:1000A000060524060001070582030800FF09040174
:1000B00000020A0000000705040210000107058382
:1000C00002100001040309041803630070006300B8
:1000D00066007000670061002E0063006F006D0015
:1000E000000026034300500043003200300031007E
:1000F000320020007200650076006900730069001C
:100100006F006E00200031000000220363007000C9
:10011000630066007000670061002E0063006F00DE
:100120006D003A0030003A00300030000000112429
:100130001FBECFEFD2E0DEBFCDBF11E0A0E0B1E047
:10014000E2ECFDE002C005900D92AC32B107D9F7A8
:1001500011E0ACE2B1E001C01D92A834B107E1F7B3
:1001600043D02DC64DCF469A08954698089583E111
:1001700091E03BC583E191E0E8D480FD02C090E4CA
:1001800001C090E088B190958064982398B9089553
:100190004F9B03C010922C01089580912C0188235D
:1001A00041F481E080932C0180E091E06DE271E008
:1001B000C3C5089584B7877F84BF88E10FB6F894DC
:1001C00080936000109260000FBE80E090E020E815
:1001D0000FB6F89420936100809361000FBE57988A
:1001E0005F9A3E9A469A06C1E5DF83E191E06DE2AF
:1001F00071E01CD446987894CBDF83E191E0E9D399
:1002000083E191E05ED4D2D3F7CFDA01923049F0A6
:10021000933061F0913029F5E4E7F0E022E130E03D
:1002200024C0E6E8F0E02EE330E01FC0813059F052
:10023000813028F0823059F0833099F40CC0E4EC1E
:10024000F0E084910BC0E8ECF0E0849107C0E2EEAE
:10025000F0E0849103C0EAE0F1E08491282F30E0DF
:1002600004C0E0E0F0E020E030E0ED93FC93C90151
:100270000895382F282F2CC02093E900231721F44C
:10028000762F942F50E006C07091EC009091ED0015
:100290005091F00091FF1BC08091EB008E7F809306
:1002A000EB008091ED008D7F8093ED008091EB005D
:1002B00081608093EB007093EC009093ED0050937D
:1002C000F0008091EE0087FD02C080E008952F5F6E
:1002D000253090F23093E90081E00895809140014B
:1002E00088239CF404C080913F018823B9F0809159
:1002F000E80082FFF8CF8091E8008B778093E800D8
:10030000089580913F01882349F08091E80080FFA3
:10031000F8CF8091E8008E778093E80008954091AF
:10032000E4005091E50024E68091EC0080FF24C0B9
:100330008091E80080FD1EC080913F01882311F468
:1003400082E00895853011F483E008958091EB00F8
:1003500085FF02C081E008958091E4009091E5005E
:100360008417950709F3222311F484E0089521509E
:10037000AC01DACF80E008958091E80082FFDCCF05
:10038000F9CF41D043D08091D8008F778093D800A7
:100390008091D80080688093D8008091D8008F7DAC
:1003A0008093D80084E089BD86E089BD09B400FE51
:1003B000FDCF10923F0110923B0110923D0110922F
:1003C0003C0180E060E042E054DF8091E1008E7FFC
:1003D0008093E1008091E20081608093E20080914F
:1003E000E20088608093E2008091E0008E7F80933D
:1003F000E0000895E3E6F0E080818E7F808381E075
:1004000080933E01BECF1092E20008951092E10069
:1004100008951F920F920FB60F9211242F933F93BE
:100420004F935F936F937F938F939F93AF93BF93FC
:10043000EF93FF938091E10082FF0AC08091E20078
:1004400082FF06C08091E1008B7F8093E100ADD2F6
:100450008091E10080FF17C08091E20080FF13C00F
:100460008091E2008E7F8093E2008091E2008061C3
:100470008093E2008091D80080628093D80019BCFC
:1004800010923F0172DE8091E10084FF2DC08091C7
:10049000E20084FF29C084E089BD86E089BD09B4FB
:1004A00000FEFDCF8091D8008F7D8093D800809191
:1004B000E1008F7E8093E1008091E2008F7E809347
:1004C000E2008091E20081608093E20080913B0134
:1004D000882331F48091E30087FD02C081E001C0F0
:1004E00084E080933F013FDE8091E10083FF22C0E2
:1004F0008091E20083FF1EC08091E100877F80939E
:10050000E10082E080933F0110923B018091E10085
:100510008E7F8093E1008091E2008E7F8093E200E5
:100520008091E20080618093E20080E060E042E040
:10053000A0DE3BD2FF91EF91BF91AF919F918F9140
:100540007F916F915F914F913F912F910F900FBECF
:100550000F901F9018959C014091460150914701C2
:100560004617570718F4F90190E03DC06115710571
:1005700011F0AB01F8CF8091E8008E778093E8000E
:1005800040E050E0F0CF80913F018823F1F18530C9
:10059000F1F18091E80083FF02C081E0089580912D
:1005A000E80082FD2CC08091E80080FF1CC0809193
:1005B000F200282F30E007C081918093F100415074
:1005C00050402F5F3F4F4115510519F0283031053C
:1005D00098F390E02830310509F491E08091E8002B
:1005E0008E778093E8004115510569F6992359F6F5
:1005F00006C080913F01882341F0853041F0809111
:10060000E80082FFF6CF80E0089582E0089583E05D
:1006100008959C01409146015091470146175707A4
:1006200018F4F90190E040C06115710511F0AB01BB
:10063000F8CF8091E8008E778093E80040E050E0AA
:10064000F0CF80913F01882309F440C0853009F440
:100650003FC08091E80083FF02C081E0089580914F
:10066000E80082FD2DC08091E80080FF1DC08091D0
:10067000F200282F30E008C084918093F100319679
:10068000415050402F5F3F4F4115510519F0283020
:10069000310590F390E02830310509F491E0809124
:1006A000E8008E778093E8004115510551F69923B3
:1006B00041F606C080913F01882341F0853041F02A
:1006C0008091E80082FFF6CF80E0089582E00895EF
:1006D00083E008950F931F93DF93CF93CDB7DEB7D9
:1006E000AC970FB6F894DEBF0FBECDBFE0E4F1E0EB
:1006F0008091F100819321E0E834F207C9F737DDFA
:100700008091E80083FF38C1809140013091410120
:10071000353009F487C0363040F43130C9F131301A
:1007200070F0333009F028C133C0383009F4F6C016
:10073000393009F405C1363009F01EC197C0803840
:1007400021F0823809F018C108C090913C018091D5
:100750003D01882399F0926011C0809144018F700F
:100760008093E9008091EB0090E025E096958795D5
:100770002A95E1F7982F91701092E9008091E80096
:10078000877F8093E8009093F1001092F100D1C030
:10079000882319F0823009F0EFC090E08F719070DB
:1007A000009721F0029709F0E7C00CC08091420148
:1007B000813009F0E1C010923D01333069F580933A
:1007C0003D012AC080914201882331F520914401E6
:1007D0002F7009F4D1C02093E9008091EB0080FFD5
:1007E0001BC0333021F48091EB00806213C08091F4
:1007F000EB0080618093EB0081E090E002C0880F05
:10080000991F2A95E2F78093EA001092EA008091FE
:10081000EB0088608093EB001092E9008091E80083
:10082000877F8AC0882309F0A7C0109142011F77F3
:100830000FB7F8948091E800877F8093E8004EDD41
:100840008091E80080FFFCCF8091E3008078812BCD
:100850008093E30080688093E300112311F482E029
:1008600001C083E080933F010FBF86C08058823073
:1008700008F082C0809142019091430123E08C3DB9
:10088000920709F033C083E08C838AE28B837FB7C1
:10089000F894DE0115966EE040E050E011E2E62F9C
:1008A000F0E010935700849140FF03C082958F7051
:1008B0006F5F8F70282F30E08A3018F0C901C7961B
:1008C00002C0C901C0968D939D934F5F5F4F443125
:1008D000510529F77FBF8091E800877F8093E8006A
:1008E000CE0103966AE270E036DE12C060914401E8
:1008F000AE014F5F5F4F89DCBC01009709F43CC03B
:100900008091E800877F8093E80089819A8181DE69
:100910008091E8008B778093E8002EC0803861F5E5
:100920008091E800877F8093E80080913B0180936D
:10093000F1008091E8008E778093E800CFDC1CC046
:100940008823D1F4909142019230B0F48091E80074
:10095000877F8093E80090933B01C0DC80913B014E
:10096000882331F48091E30087FD02C081E001C05B
:1009700084E080933F01FEDB8091E80083FF0AC0A2
:100980008091EB0080628093EB008091E800877F8C
:100990008093E800AC960FB6F894DEBF0FBECDBFD3
:1009A000CF91DF911F910F91089508951F9380912A
:1009B0003F01882361F01091E9001092E9008091D5
:1009C000E80083FF01C086DE1F701093E9001F91CD
:1009D0000895FC0180913F01843021F5818992893D
:1009E000A389B4890097A105B105E1F085818093C1
:1009F000E9008091E80082FF15C08091F200882311
:100A000019F42FEF3FEF04C08091F100282F30E060
:100A10008091F200882341F48091E8008B778093E5
:100A2000E80002C02FEF3FEFC9010895FB012EE05F
:100A3000DB011D922A95E9F723E0238326E935E0BF
:100A40003187208729E235E033872287958784879D
:100A50000895FC0184859585BCDF9C0197FF02C049
:100A60002EEF3FEFC90108950895FC0180913F01E9
:100A7000843011F581899289A389B4890097A105F1
:100A8000B105D1F081818093E9008091F200882343
:100A9000A9F09091E8008091E8008E778093E800BB
:100AA00095FD0CC03CDC982F882349F48091E80028
:100AB0008E778093E80003C092E001C090E0892F18
:100AC0000895FC0180913F01843051F4818992891D
:100AD000A389B4890097A105B10511F0CF01C5CF55
:100AE00008951F93FC01162F80913F018430D9F4A3
:100AF00081899289A389B4890097A105B10599F0EC
:100B000081818093E9008091E80085FD08C0809193
:100B1000E8008E778093E80002DC882329F41093A4
:100B2000F10080E001C082E01F910895282FFB01B1
:100B300084859585622FD5DF882319F420E030E085
:100B400002C02FEF3FEFC90108951F93CF93DF93AA
:100B5000EC010D96FC018BE0DF011D928A95E9F70F
:100B600011E08981181729F46A817B818C8152E018
:100B700010C08D81181731F46E817F81888552E015
:100B800030E008C08985181739F56A857B858C8522
:100B900053E030E8882311F440E001C044E020E055
:100BA00088E090E003C02F5F880F991F8617970792
:100BB000D0F3852F90E056E0880F991F5A95E1F702
:100BC00060E0311161E0682B42602295207F422B6A
:100BD000812F4FDB882329F01F5F153009F0C1CF2B
:100BE00081E0DF91CF911F910895CF93DF93EC01C6
:100BF0008091E80083FF9DC0888190E020914401AE
:100C0000309145012817390709F093C080914101BF
:100C1000813269F0823220F4803209F08AC03CC00F
:100C2000823209F465C0833209F083C074C08091B8
:100C30004001813A09F07DC08091E800877F809370
:100C4000E8008091E80080FFFCCF89899A89AB8910
:100C5000BC898093F100292F3A2F4B2F55272093E1
:100C6000F1009D01442755272093F1008B2F9927F0
:100C7000AA27BB278093F1008D898093F1008E898C
:100C80008093F1008F898093F1008091E8008E7746
:100C90008093E80023DB4DC080914001813209F050
:100CA00048C08091E800877F8093E8008091E80049
:100CB00082FFFCCF8091F1009091F1002091F10032
:100CC0003091F100898B9A8B2B8B3C8B8091F100BA
:100CD0008D8B8091F1008E8B8091F1008F8B8091B4
:100CE000E8008B778093E800F9DACE01BDDE21C001
:100CF000809140018132E9F48091E800877F809300
:100D0000E800ECDA80914201909143019E878D8743
:100D1000CE01AADE0EC080914001813251F4809153
:100D2000E800877F8093E800D9DACE016091420124
:100D30009BDEDF91CF910895EF92FF920F931F9367
:100D4000CF93DF937C018B01DB0113968C9181FDA6
:100D500003C0CFEFDFEF13C0C0E0D0E00BC0D8017D
:100D60001896ED91FC911997B8010995892B11F00E
:100D7000CFEFDFEFF70181917F01882381F7CE016B
:100D8000CDB7DEB7E6E00CC02A88398848885F8492
:100D90006E847D848C849B84AA84B984C884DF801B
:100DA000EE80FD800C811B81AA81B981CE0FD11DFF
:100DB0000FB6F894DEBF0FBECDBFED010895F894D5
:020DC000FFCF63
:100DC2004A6F79737469636B2050726573736564DB
:100DD2000D0A0000031000000410000002080000C9
:0C0DE20000000000000000000000000005
:00000001FF
