:1000000091C00000ABC00000A9C00000A7C0000064
:10001000A5C00000A3C00000A1C000009FC0000058
:100020009DC000009BC0000099C000007CC3000080
:1000300095C0000093C0000091C000008FC0000078
:100040008DC000008BC0000089C0000087C0000088
:1000500085C0000083C0000081C0000061C10000B5
:100060007DC000007BC0000079C0000077C00000A8
:1000700075C0000073C0000071C000006FC00000B8
:100080006DC000006BC0000069C0000067C00000C8
:1000900065C0000063C000001201100102000008EA
:1000A000501D636001000102DC0109023E000201F3
:1000B00000C0320904000001020201000524001002
:1000C0000104240206052406000107058203080036
:1000D000FF09040100020A000000070504021000E5
:1000E00001070583021000010403090418036300DB
:1000F0007000630066007000670061002E006300FE
:100100006F006D0000001C034300500043003200EC
:1001100030003100330020007200650076002000BE
:100120003200000011241FBECFEFD4E0DEBFCDBFF0
:1001300011E0A0E0B1E0EEEAF1E102C005900D921D
:10014000AA31B107D9F714E0AAE1B1E001C01D92CC
:10015000AC30B107E1F76ED00C94D50851CF98B10F
:1001600080959460892388B90895FC01A081B181AC
:100170006C93808191810196918380832681378160
:100180008217930721F484819581918380832FB70F
:10019000F894828593850196938782872FBF08956F
:1001A000FC01A281B3818D91B383A2832681378123
:1001B000A217B30721F424813581338322839FB7AB
:1001C000F8942285338521503040338722879FBFA2
:1001D0000895FC012FB7F894718360837383628361
:1001E00075836483605C7F4F7783668380E490E0EF
:1001F00091878087138612862FBF089584B7877FE3
:1002000084BF88E10FB6F89480936000109260007C
:100210000FBE90E080E80FB6F89480936100909351
:1002200061000FBE3A9A429A6FD2E6D0A7D184E01D
:1002300085BD0895CF93DF93E1DF86E291E062E32D
:1002400071E0C7DF8AE191E062E771E0C2DF84E03C
:1002500086DF78948FB7F894209130013091310186
:100260008FBF80912E0190912F012817390749F0F7
:1002700080E091E042D7BC0197FD03C086E291E0A7
:1002800074DF8FB7F894C0912401D09125018FBFFE
:10029000A89903C0C133D10590F0A89A0EC0E0918F
:1002A0001C01F0911D0180E091E06081BCD6219796
:1002B000882329F48AE191E073DF209781F72FB733
:1002C000F89480913001909131012FBF009749F04F
:1002D00086E291E065DF9091C80095FFFCCF8093A6
:1002E000CE0080E091E0F9D693D5B4CF80E037CF4F
:1002F00084E035CF80E091E045D680FF02C080E009
:1003000001C084E02CCF8091E80083FF01C0BAD007
:100310008091E80083FF03C080E091E08CC50895E0
:100320001F920F920FB60F9211242F933F934F936A
:100330005F936F937F938F939F93AF93BF93EF934D
:10034000FF936091CE0080910304843019F48AE118
:1003500091E00BDFFF91EF91BF91AF919F918F9152
:100360007F916F915F914F913F912F910F900FBEB1
:100370000F901F9018951F93FC01A689A150A230E1
:1003800028F4B0E0A85EBE4F1C9101C010E0858942
:10039000823009F418608789873031F0883031F075
:1003A000863029F4126003C0146001C016601092F8
:1003B000C9001092C8001092CA002189328943896D
:1003C0005489CA01B9019695879577956795605CC0
:1003D0007D4B804F9F4FBFD6215030403093CD0092
:1003E0002093CC001093CA0082E08093C80088E973
:1003F0008093C9001F91089587B1806E87B93C989A
:10040000469A88B1806A88B90895469805C0459A89
:10041000000045980000029718161906C4F30895C5
:10042000882321F06150704077FD2BC03091B603D6
:10043000469891E020E0E6EBF3E013C0492F432318
:1004400011F0479A01C047983499292B459A00002A
:10045000990F21F42193308191E020E0459861507B
:1004600070406115710551F7882349F0469A392388
:1004700011F0479A01C047983499292B459A208357
:100480004598089580910404803CA9F48091050466
:100490008F3409F043C08091E800877F8093E800A3
:1004A00060910A0470910B0486EB93E0DDD180919A
:1004B000E8008B7723C0803489F5809105048A3465
:1004C00001F58091E800877F8093E800609108043F
:1004D00070910904695F7F4FE3E076956795EA952F
:1004E000E1F786EB93E01CD2609108047091090457
:1004F0008091060495DF8091E8008E778093E80074
:1005000008958A3559F48091E800877F8093E80048
:10051000809106049091070478DF6FC00895D90197
:100520001C92923029F0933041F09130E9F417C0D9
:100530002EE330E0EAEAF0E01BC0813041F0813088
:1005400018F0823089F406C0E8EEF0E005C0ECEE69
:10055000F0E002C0E6E0F1E0249130E009C022E1E1
:1005600030E0E8E9F0E004C020E030E0E0E0F0E076
:10057000DA011196FC93EE93C9010895E2EBF1E0E4
:1005800080E090E08193019622E080309207D1F7DD
:100590000895982F2AC09093E900981739F0709128
:1005A000EC002091ED005091F00003C0242F762F35
:1005B00050E021FF19C03091EB003E7F3093EB00FB
:1005C0003091ED003D7F3093ED003091EB003160D4
:1005D0003093EB007093EC002093ED005093F0000B
:1005E0002091EE0027FF07C09F5F9530A0F2809317
:1005F000E90081E0089580E008958091040487FF78
:1006000013C004C0809103048823B9F08091E800EE
:1006100082FFF8CF8091E8008B778093E8000895FF
:1006200080910304882349F08091E80080FFF8CF8F
:100630008091E8008E778093E80008958091E4002F
:100640009091E5002091EC0020FF21C02091E8006E
:1006500020FD13C020910304222389F0253089F066
:100660002091EB0025FD0FC02091E4003091E500C2
:100670002817390739F384E0089580E0089582E06F
:10068000089583E0089581E0089580E00895209121
:10069000E80022FFDFCFF9CF40D042D08091D800D0
:1006A0008F778093D8008091D80080688093D8009D
:1006B0008091D8008F7D8093D80019BC82E089BDDD
:1006C00009B400FEFDCF109203041092FF031092B4
:1006D00001041092000480E060E042E05ADF809163
:1006E000E1008E7F8093E1008091E2008160809341
:1006F000E2008091E20088608093E2008091E00057
:100700008E7F8093E0000895E3E6F0E080818E7FA5
:10071000808381E080930204BFCF1092E2000895AD
:100720001092E10008951F920F920FB60F921124BC
:100730002F933F934F935F936F937F938F939F93E9
:10074000AF93BF93EF93FF938091E10082FF0AC0C4
:100750008091E20082FF06C08091E1008B7F809350
:10076000E10055D38091E10080FF17C08091E20045
:1007700080FF13C08091E2008E7F8093E200809121
:10078000E20080618093E2008091D80080628093D3
:10079000D80019BC10920304ABDD8091E10084FF06
:1007A0002CC08091E20084FF28C019BC82E089BD82
:1007B00009B400FEFDCF8091D8008F7D8093D800D2
:1007C0008091E1008F7E8093E1008091E2008F7E36
:1007D0008093E2008091E20081608093E20080914A
:1007E000FF03882321F48091E30087FF02C084E0A7
:1007F00001C081E08093030479DD8091E10083FFF3
:1008000022C08091E20083FF1EC08091E100877FBB
:100810008093E10082E0809303041092FF038091B3
:10082000E1008E7F8093E1008091E2008E7F8093D3
:10083000E2008091E20080618093E20080E060E06D
:1008400042E0A7DEE4D2FF91EF91BF91AF919F917B
:100850008F917F916F915F914F913F912F910F9069
:100860000FBE0F901F901895282F392FF9018091F6
:100870000A0490910B048617970718F4BC0120E036
:1008800035C061157105D9F78091E8008E778093A6
:10089000E800F5CF809103048823F1F18530C1F1A0
:1008A0008091E80083FD36C08091E80082FD2AC077
:1008B0008091E80080FF1AC08091F20090E006C0AD
:1008C00021912093F10061507040019661157105EE
:1008D00019F088309105A0F321E08830910509F0E6
:1008E00020E08091E8008E778093E8006115710523
:1008F00089F6222379F606C080910304882361F0EB
:10090000853061F08091E80082FFF6CF80E00895A5
:1009100083E0089581E0089582E0089583E00895DA
:100920006115710519F51DC020910304222391F171
:10093000253061F12091E80023FD2AC02091E800D4
:1009400022FFF2CFE82FF92F07C08091F1008193A9
:10095000CF016150704029F0CF012091F200222395
:10096000A1F72091E8002B772093E800611571052D
:10097000D9F606C080910304882361F0853061F0C8
:100980008091E80080FFF6CF80E0089583E008952D
:1009900081E0089582E0089583E00895E82FF92F1B
:1009A00080910A0490910B048617970718F4BC01F4
:1009B00020E037C061157105D9F78091E8008E7786
:1009C0008093E800F5CF80910304882309F43FC0A9
:1009D0008530C9F18091E80083FD37C08091E8003F
:1009E00082FD2BC08091E80080FF1BC08091F20047
:1009F00090E007C024912093F1003196615070403F
:100A000001966115710519F08830910598F321E080
:100A10008830910509F020E08091E8008E7780937E
:100A2000E8006115710579F6222369F606C0809108
:100A30000304882361F0853061F08091E80082FF33
:100A4000F6CF80E0089583E0089581E0089582E084
:100A5000089583E00895EF92FF920F931F93CF9331
:100A6000DF93EB01E82EF92E80910A0490910B049C
:100A70008617970718F4EC0180E039C02097E1F75A
:100A80008091E8008E778093E800F6CF9091030480
:100A9000992309F43FC0953009F43EC09091E800D5
:100AA00093FD36C09091E80092FD2CC09091E80033
:100AB00090FF1DC00091F20010E00AC0C7016DD385
:100AC0008093F1000894E11CF11C21970F5F1F4FE8
:100AD000209719F00830110588F381E008301105DE
:100AE00009F080E09091E8009E779093E8002097CD
:100AF00069F6882359F606C080910304882351F0D3
:100B0000853051F08091E80082FFF6CF80E005C08B
:100B100081E003C082E001C083E0DF91CF911F91AB
:100B20000F91FF90EF9008950F931F93DF93CF9352
:100B3000CDB7DEB7AD970FB6F894DEBF0FBECDBF11
:100B4000E4E0F4E08091F100819324E0EC30F207DE
:100B5000C9F7D9DB8091E80083FF40C1809104048C
:100B600020910504253009F484C0263040F421305A
:100B7000A1F1213070F0233009F030C12EC02830AF
:100B800009F4FEC0293009F40DC1263009F026C150
:100B900094C0803821F0823809F020C108C08091CB
:100BA000000490910104992371F082600CC080913F
:100BB00008048F708093E9009091EB0081E095FF2D
:100BC00080E01092E9009091E800977F9093E80010
:100BD0008093F1001092F100DEC0882319F082307A
:100BE00009F0FCC090E08F719070009729F082307E
:100BF000910509F0F3C00BC080910604813009F023
:100C0000EDC0233009F080E0809301042CC0809176
:100C10000604882341F5209108042F7009F4DEC0F2
:100C20002093E9008091EB0080FF1DC080910504B6
:100C3000833021F48091EB00806213C08091EB003F
:100C400080618093EB0081E090E002C0880F991FE3
:100C50002A95E2F78093EA001092EA008091EB0077
:100C600088608093EB001092E9008091E800877F14
:100C700095C0882309F0B2C0109106041F770FB702
:100C8000F8948091E800877F8093E800B6DC80913B
:100C9000E80080FFFCCF8091E3008078812B809377
:100CA000E30080688093E300112311F083E001C02A
:100CB00082E0809303040FBF91C08058823008F017
:100CC0008DC0809106049091070423E08C3D92072B
:100CD00089F583E08D838AE28C835FB7F894DE0127
:100CE000169680E090E04EE061E2E42FF0E0609341
:100CF0005700E49180FF03C0E295EF704F5FEF7003
:100D00002E2F30E0EA3018F0295C3F4F02C0205D02
:100D10003F4F2D933D9301968431910531F75FBF8D
:100D20008091E800877F8093E800CE0104966AE214
:100D300070E01FC060910804AE014E5F5F4F9E01DE
:100D40002F5F3F4FECDBBC01009709F447C0809157
:100D5000E800877F8093E8002981222321F48A819B
:100D60009B811CDE07C08A819B81213011F473DED8
:100D700001C07ADD8091E8008B778093E8002EC077
:100D8000803861F58091E800877F8093E80080914A
:100D9000FF038093F1008091E8008E778093E80054
:100DA0002CDC1CC08823D1F4909106049230B0F45E
:100DB0008091E800877F8093E8009093FF031DDC1B
:100DC0008091FF03882321F48091E30087FF02C014
:100DD00084E001C081E0809303048CDA8091E80014
:100DE00083FF0AC08091EB0080628093EB008091CA
:100DF000E800877F8093E800AD960FB6F894DEBFD9
:100E00000FBECDBFCF91DF911F910F91089508952F
:100E10001F9380910304882361F01091E9001F70F3
:100E20001092E9008091E80083FF01C07DDE1093FD
:100E3000E9001F910895CF93DF93EC018091E800C2
:100E400083FF9DC0888190E02091080430910904BF
:100E50002817390709F093C080910504813269F0A1
:100E6000823220F4803209F08AC03CC0823209F418
:100E700065C0833209F083C074C080910404813A54
:100E800009F07DC08091E800877F8093E800809121
:100E9000E80080FFFCCF89899A89AB89BC8980935F
:100EA000F100292F3A2F4B2F55272093F1009D0158
:100EB000442755272093F1008B2F9927AA27BB277A
:100EC0008093F1008D898093F1008E898093F100E9
:100ED0008F898093F1008091E8008E778093E800FD
:100EE0008CDB4DC080910404813209F048C08091B0
:100EF000E800877F8093E8008091E80082FFFCCFC4
:100F00003091F1002091F1009091F1008091F10079
:100F1000398B2A8B9B8B8C8B8091F1008D8B8091F0
:100F2000F1008E8B8091F1008F8B8091E8008B77A0
:100F30008093E80062DBCE011EDA21C080910404B8
:100F40008132E9F48091E800877F8093E80055DBE7
:100F500080910604909107049E878D87CE01FAD078
:100F60000EC080910404813251F48091E800877FA3
:100F70008093E80042DBCE0160910604EBD0DF9164
:100F8000CF9108951F93CF93DF93EC010D96FC0151
:100F90008BE0DF011D928A95E9F711E0898118172E
:100FA00029F4EA81FB819C8180E807C08D811817B4
:100FB00031F4EE81FF81988580E022E008C08985C8
:100FC000181739F5EA85FB859C8580E823E099238D
:100FD00011F044E001C040E030E066E0220F331F32
:100FE0006A95E1F761E0882309F460E0622B28E06C
:100FF00030E080E003C08F5F220F331F2E173F07C2
:10100000D0F342608295807F482B812FC2DA8823FB
:1010100029F01F5F153011F681E001C080E0DF91FB
:10102000CF911F910895DF93CF930F92CDB7DEB785
:10103000FC01809103048430F1F4218932894389D1
:1010400054892115310541055105A9F0818180930D
:10105000E9008091E80085FD0AC08091E8008E7764
:101060008093E8006983EADA6981882329F4609330
:10107000F10080E001C082E00F90CF91DF910895F0
:10108000FC0180910304843011F521893289438960
:1010900054892115310541055105C9F0818180939D
:1010A000E9008091F2008823A1F09091E8008091FE
:1010B000E8008E778093E80095FD0DC0BFDA8823A5
:1010C00059F49091E8009E779093E800089582E0AB
:1010D000089580E0089580E008952091030424306D
:1010E00059F4FC012189328943895489211531053C
:1010F0004105510509F0C4CF0895FC018091030416
:10110000843021F52189328943895489211531059B
:1011100041055105D9F085818093E9008091E8006F
:1011200082FF14C08091F200882321F02091F10009
:1011300030E002C02FEF3FEF8091F200882341F4AE
:101140008091E8008B778093E80002C02FEF3FEF9B
:10115000C90108950895A1E21A2EAA1BBB1BFD0127
:101160000DC0AA1FBB1FEE1FFF1FA217B307E40786
:10117000F50720F0A21BB30BE40BF50B661F771FDE
:10118000881F991F1A9469F76095709580959095BE
:101190009B01AC01BD01CF010895F999FECF92BD2D
:0E11A00081BDF89A992780B50895F894FFCF85
:1011AE000003100000041000000208000000000000
:0A11BE0000000000000000003020D7
:00000001FF
