:10000000A7C00000C1C00000BFC00000BDC000000C
:10001000BBC00000B9C00000B7C00000B5C0000000
:10002000B3C00000B1C00000AFC000000CC20000AF
:10003000ABC00000A9C00000A7C00000A5C0000020
:10004000A3C00000A1C000009FC000009DC0000030
:100050009BC0000099C0000097C0000095C0000040
:1000600093C0000091C000008FC000008DC0000050
:100070008BC0000012011001EF020108EB034E20BB
:1000800001000102DC0109028300040100C0320802
:100090000B0002020201000904000001020201003B
:1000A00005240010010424020605240600010705AA
:1000B00083030800FF09040100020A00000007058D
:1000C000020210000107058102100001080B020264
:1000D00002020100090402000102020100052400DD
:1000E00010010424020605240602030705860308FE
:1000F00000FF09040300020A0000000705050210C2
:1001000000010705840210000104030904180344D8
:1001100000650061006E002000430061006D006515
:10012000007200610000001C034C005500460041B5
:100130000020004400750061006C00200043004472
:100140000043002000440065006D006F00000000C7
:1001500011241FBECFEFD2E0DEBFCDBF11E0A0E083
:10016000B1E0E2EBF3E102C005900D92A833B107D4
:10017000D9F711E0A8E3B1E001C01D92A836B1079C
:10018000E1F74DD00C94D7093BCF0895089587E04F
:1001900091E087D58FE191E084C587E091E031D58A
:1001A0008FE191E02EC580915801909159010196FF
:1001B0009093590180935801019700D000D020E01E
:1001C00031E0EDB7FEB7328321839483838322D657
:1001D0000F900F900F900F9080915A01882341F457
:1001E00081E080935A0187E091E068E371E0EBC41D
:1001F000089584B7877F84BF88E10FB6F894809311
:100200006000109260000FBE80E090E020E80FB622
:10021000F89420936100809361000FBE05C1E9DF6F
:100220007894C1DF87E091E03FD48FE191E03CD446
:10023000BC0197FD03C08FE191E0A0D487E091E07D
:100240008DD48FE191E08AD41CD4EBCFDA019230C7
:1002500049F0933061F09130F9F4E4E7F0E022E105
:1002600030E01EC0E6E8F0E023E830E019C081305D
:1002700049F0813018F0823079F408C0E9E0F1E00B
:10028000849107C0EDE0F1E0849103C0E7E2F1E082
:100290008491282F30E004C0E0E0F0E020E030E07E
:1002A000ED93FC93C9010895382F282F2CC020937B
:1002B000E900231721F4762F942F50E006C07091A7
:1002C000EC009091ED005091F00091FF1BC08091E7
:1002D000EB008E7F8093EB008091ED008D7F80930B
:1002E000ED008091EB0081608093EB007093EC0057
:1002F0009093ED005093F0008091EE0087FD02C0D6
:1003000080E008952F5F253090F23093E90081E07E
:1003100008958091600188239CF404C080915F015E
:100320008823B9F08091E80082FFF8CF8091E8003F
:100330008B778093E800089580915F01882349F0CE
:100340008091E80080FFF8CF8091E8008E7780935D
:10035000E80008954091E4005091E50024E6809182
:10036000EC0080FF24C08091E80080FD1EC08091D9
:100370005F01882311F482E00895853011F483E051
:1003800008958091EB0085FF02C081E0089580917F
:10039000E4009091E5008417950709F3222311F4F6
:1003A00084E008952150AC01DACF80E00895809177
:1003B000E80082FFDCCFF9CF40D042D08091D80056
:1003C0008F778093D8008091D80080688093D80080
:1003D0008091D8008F7D8093D80019BC82E089BDC0
:1003E00009B400FEFDCF10925F0110925B011092E4
:1003F0005D0110925C0180E060E042E055DF809199
:10040000E1008E7F8093E1008091E2008160809323
:10041000E2008091E20088608093E2008091E00039
:100420008E7F8093E0000895E3E6F0E080818E7F88
:10043000808381E080935E01BFCF1092E200089537
:100440001092E10008951F920F920FB60F9211249F
:100450002F933F934F935F936F937F938F939F93CC
:10046000AF93BF93EF93FF938091E10082FF0AC0A7
:100470008091E20082FF06C08091E1008B7F809333
:10048000E100FED28091E10080FF17C08091E20080
:1004900080FF13C08091E2008E7F8093E200809104
:1004A000E20080618093E2008091D80080628093B6
:1004B000D80019BC10925F0169DE8091E10084FFD1
:1004C0002CC08091E20084FF28C019BC82E089BD65
:1004D00009B400FEFDCF8091D8008F7D8093D800B5
:1004E0008091E1008F7E8093E1008091E2008F7E19
:1004F0008093E2008091E20081608093E20080912D
:100500005B01882331F48091E30087FD02C081E024
:1005100001C084E080935F0138DE8091E10083FFB9
:1005200022C08091E20083FF1EC08091E100877F9E
:100530008093E10082E080935F0110925B018091E3
:10054000E1008E7F8093E1008091E2008E7F8093B6
:10055000E2008091E20080618093E20080E060E050
:1005600042E0A2DE8DD2FF91EF91BF91AF919F91BA
:100570008F917F916F915F914F913F912F910F904C
:100580000FBE0F901F9018959C01409166015091ED
:1005900067014617570718F4F90190E03DC061154F
:1005A000710511F0AB01F8CF8091E8008E77809350
:1005B000E80040E050E0F0CF80915F018823F1F146
:1005C0008530F1F18091E80083FF02C081E0089559
:1005D0008091E80082FD2CC08091E80080FF1CC063
:1005E0008091F200282F30E007C081918093F100C4
:1005F000415050402F5F3F4F4115510519F02830B1
:10060000310598F390E02830310509F491E08091AC
:10061000E8008E778093E8004115510569F699232B
:1006200059F606C080915F01882341F0853041F082
:100630008091E80082FFF6CF80E0089582E008957F
:1006400083E008959C01409166015091670146172F
:10065000570718F4F90190E040C06115710511F0D9
:10066000AB01F8CF8091E8008E778093E80040E0FE
:1006700050E0F0CF80915F01882309F440C08530BD
:1006800009F43FC08091E80083FF02C081E0089533
:100690008091E80082FD2DC08091E80080FF1DC0A0
:1006A0008091F200282F30E008C084918093F100FF
:1006B0003196415050402F5F3F4F4115510519F081
:1006C0002830310590F390E02830310509F491E0AD
:1006D0008091E8008E778093E8004115510551F62E
:1006E000992341F606C080915F01882341F085304F
:1006F00041F08091E80082FFF6CF80E0089582E02B
:10070000089583E00895BF92CF92DF92EF92FF9217
:100710000F931F93CF93DF93182F092F7B016A014B
:1007200019DEB82E8823B1F5812F902F9C01E901A5
:10073000C114D10439F0F60180819181E81AF90AD7
:10074000C80FD91F00E010E022C08091E80085FDAD
:1007500016C08091E8008E778093E80092D1C11492
:10076000D10449F0F60180819181800F911F91831E
:10077000808385E010C0EEDD882349F00CC08991AC
:100780008093F1000894E108F1080F5F1F4FE11416
:10079000F104D9F68B2DDF91CF911F910F91FF902E
:1007A000EF90DF90CF90BF9008950F931F93DF934A
:1007B000CF93CDB7DEB7AC970FB6F894DEBF0FBEC0
:1007C000CDBFE0E6F1E08091F100819321E0E836D1
:1007D000F207C9F7DCDC8091E80083FF38C1809123
:1007E000600130916101353009F487C0363040F442
:1007F0003130C9F1313070F0333009F028C133C0E5
:10080000383009F4F6C0393009F405C1363009F042
:100810001EC197C0803821F0823809F018C108C085
:1008200090915C0180915D01882399F0926011C0E4
:10083000809164018F708093E9008091EB0090E0DB
:1008400025E0969587952A95E1F7982F917010925B
:10085000E9008091E800877F8093E8009093F100A1
:100860001092F100D1C0882319F0823009F0EFC056
:1008700090E08F719070009721F0029709F0E7C027
:100880000CC080916201813009F0E1C010925D01DD
:10089000333069F580935D012AC08091620188231D
:1008A00031F5209164012F7009F4D1C02093E90043
:1008B0008091EB0080FF1BC0333021F48091EB006E
:1008C000806213C08091EB0080618093EB0081E037
:1008D00090E002C0880F991F2A95E2F78093EA0002
:1008E0001092EA008091EB0088608093EB001092F8
:1008F000E9008091E800877F8AC0882309F0A7C0BB
:10090000109162011F770FB7F8948091E800877FFC
:100910008093E800FEDC8091E80080FFFCCF8091AE
:10092000E3008078812B8093E30080688093E3006C
:10093000112311F482E001C083E080935F010FBFB7
:1009400086C08058823008F082C080916201909108
:10095000630123E08C3D920709F033C083E08C8370
:100960008AE28B837FB7F894DE0115966EE040E053
:1009700050E011E2E62FF0E010935700849140FF21
:1009800003C082958F706F5F8F70282F30E08A30A0
:1009900018F0C901C79602C0C901C0968D939D93F6
:1009A0004F5F5F4F4431510529F77FBF8091E800C9
:1009B000877F8093E800CE0103966AE270E0E4DD71
:1009C00012C060916401AE014F5F5F4F3FDCBC011C
:1009D000009709F43CC08091E800877F8093E8008D
:1009E00089819A812FDE8091E8008B778093E800DF
:1009F0002EC0803861F58091E800877F8093E80001
:100A000080915B018093F1008091E8008E77809364
:100A1000E8007FDC1CC08823D1F490916201923001
:100A2000B0F48091E800877F8093E80090935B01A9
:100A300070DC80915B01882331F48091E30087FDB5
:100A400002C081E001C084E080935F01A6DB809159
:100A5000E80083FF0AC08091EB0080628093EB0086
:100A60008091E800877F8093E800AC960FB6F894F9
:100A7000DEBF0FBECDBFCF91DF911F910F910895C3
:100A800008951F9380915F01882361F01091E90020
:100A90001092E9008091E80083FF01C086DE1F709C
:100AA0001093E9001F910895FC0180915F0184304B
:100AB00021F581899289A389B4890097A105B1059F
:100AC000E1F085818093E9008091E80082FF15C004
:100AD0008091F200882319F42FEF3FEF04C080913A
:100AE000F100282F30E08091F200882341F48091BA
:100AF000E8008B778093E80002C02FEF3FEFC90139
:100B000008950895FC0180915F01843011F5818979
:100B10009289A389B4890097A105B105D1F081819B
:100B20008093E9008091F2008823A9F09091E80079
:100B30008091E8008E778093E80095FD0CC00ADC78
:100B4000982F882349F48091E8008E778093E800FD
:100B500003C092E001C090E0892F0895FC018091CC
:100B60005F01843051F481899289A389B489009707
:100B7000A105B10511F0CF01C5CF08951F93FC0168
:100B8000162F80915F018430D9F481899289A389DD
:100B9000B4890097A105B10599F081818093E9009E
:100BA0008091E80085FD08C08091E8008E778093F1
:100BB000E800D0DB882329F41093F10080E001C025
:100BC00082E01F910895FC0180915F018430B9F4A7
:100BD00081899289A389B4890097A105B10579F02B
:100BE00081818093E900DB010D900020E9F71197E6
:100BF000A61BB70BCB01BD0140E050E084CD82E0E5
:100C000008951F93CF93DF93EC010D96FC018BE0C9
:100C1000DF011D928A95E9F711E08981181729F4FF
:100C20006A817B818C8152E010C08D81181731F46C
:100C30006E817F81888552E030E008C08985181771
:100C400039F56A857B858C8553E030E8882311F47B
:100C500040E001C044E020E088E090E003C02F5F66
:100C6000880F991F86179707D0F3852F90E056E0DD
:100C7000880F991F5A95E1F760E0311161E0682B08
:100C800042602295207F422B812F0EDB882329F0A2
:100C90001F5F153009F0C1CF81E0DF91CF911F9127
:100CA0000895CF93DF93EC018091E80083FF9DC00E
:100CB000888190E0209164013091650128173907FF
:100CC00009F093C080916101813269F0823220F491
:100CD000803209F08AC03CC0823209F465C0833298
:100CE00009F083C074C080916001813A09F07DC031
:100CF0008091E800877F8093E8008091E80080FF82
:100D0000FCCF89899A89AB89BC898093F100292F0E
:100D10003A2F4B2F55272093F1009D01442755274B
:100D20002093F1008B2F9927AA27BB278093F100EE
:100D30008D898093F1008E898093F1008F89809353
:100D4000F1008091E8008E778093E800E2DA4DC0F0
:100D500080916001813209F048C08091E800877F6E
:100D60008093E8008091E80082FFFCCF8091F10041
:100D70009091F1002091F1003091F100898B9A8BD4
:100D80002B8B3C8B8091F1008D8B8091F1008E8BB1
:100D90008091F1008F8B8091E8008B778093E80041
:100DA000B8DACE01AEDE21C0809160018132E9F473
:100DB0008091E800877F8093E800ABDA8091620140
:100DC000909163019E878D87CE019BDE0EC080913E
:100DD0006001813251F48091E800877F8093E800C0
:100DE00098DACE01609162018CDEDF91CF91089597
:100DF0005527002480FF02C0060E571F660F771F7D
:100E00006115710521F096958795009799F7952FB3
:100E1000802D0895AEE0B0E0EFE0F7E09FC20D89CD
:100E20001E8986E08C831A8309838FEF9FE79E8358
:100E30008D839E01275E3F4FCE0101966F89788D8D
:100E4000A90109D02F813885020F131FF8011082E4
:100E50002E96E4E09FC2ABE0B0E0E0E3F7E070C2C2
:100E60004C012B015A01FC0117821682838181FDFE
:100E700003C06FEF7FEFBEC11E010894211C311C1F
:100E80009FE3692EF4013381F20133FD859133FF35
:100E900081912F01882309F4AAC1853239F433FDE9
:100EA000859133FF81912F01853221F490E0B401C7
:100EB000BBD1E8CF982FFF24EE247724FFE1FF1564
:100EC000D0F09B3269F09C3228F4903259F0933282
:100ED00091F40EC09D3249F0903369F441E02AC08C
:100EE00052E0F52A84E0F82A2EC098E0F92A2BC0B7
:100EF000E0E1FE2A28C0F7FC2FC0292F20532A301A
:100F0000A0F4F6FE08C0872D90E06AE070E070DF84
:100F1000782E720E18C08E2D90E06AE070E068DFC7
:100F2000E82EE20EF0E2FF2A0EC09E3229F4F6FC13
:100F30005EC140E4F42A07C09C3619F450E8F52A53
:100F400002C0983649F4F20133FD959133FF919137
:100F50002F01992309F0B2CF892F8554833018F0DF
:100F60008052833030F444E050E0A40EB51E698214
:100F70000FC0933631F0933779F0933509F052C0B2
:100F80001FC0F5018081898342E050E0A40EB51EA8
:100F9000610101E010E011C0F501C080D180F6FCD4
:100FA00003C06FEF7FEF02C0672D70E042E050E0BA
:100FB000A40EB51EC6012DD18C015FE7F52213C02A
:100FC000F501C080D180F6FC03C06FEF7FEF02C057
:100FD000672D70E042E050E0A40EB51EC6010ED1B0
:100FE0008C0150E8F52AF3FE06C018C080E290E0BC
:100FF000B4011AD1EA948E2D90E008171907B0F3C6
:101000000DC0F601F7FC8591F7FE81916F0190E02C
:10101000B4010AD1E110EA94015010400115110504
:1010200081F7E2C0943611F0993661F5F7FE08C0F9
:10103000F501208131814281538184E090E00AC032
:10104000F501808191819C01442737FD4095542F03
:1010500082E090E0A80EB91E9FE6F92257FF09C072
:1010600050954095309521953F4F4F4F5F4FE0E8A9
:10107000FE2ACA01B901A1012AE030E001D1D82E2F
:10108000D2183FC0953729F41F2D1F7E2AE030E08B
:101090001DC01F2D197F9F3661F0903720F49835C1
:1010A00009F0A5C00FC0903739F0983709F09FC0FC
:1010B00004C028E030E00AC0106114FD146020E193
:1010C00030E004C014FD166020E132E017FF08C0D4
:1010D000F501608171818281938144E050E008C014
:1010E000F50180819181BC0180E090E042E050E018
:1010F000A40EB51EA101C4D0D82ED2188FE7F82EA9
:10110000F122F6FE0BC05EEFF522D71438F4F4FEA0
:1011100007C0F2FC05C08FEEF82202C01D2D01C0F1
:10112000172DF4FE0DC0FE01ED0DF11D8081803301
:1011300019F499EEF92208C01F5FF2FE05C003C042
:101140008F2D867809F01F5F0F2DF3FC13C0F0FE82
:101150000EC01E1510F07D2C0AC07D2C7E0C711A5D
:101160001E2D05C080E290E0B4015ED01F5F1E1509
:10117000C8F304C01E1510F4E11A01C0EE2404FFE8
:101180000EC080E390E0B4014FD002FF1BC001FD10
:1011900003C088E790E00EC088E590E00BC0802F88
:1011A000867881F001FF02C08BE201C080E2F7FC8B
:1011B0008DE290E0B40138D005C080E390E0B40146
:1011C00033D07A94D714C8F3DA94F101ED0DF11D00
:1011D000808190E0B40128D0DD20B1F705C080E225
:1011E00090E0B40121D0EA94EE20C9F74BCEF4018F
:1011F00066817781CB012B96E2E1BEC0FC010590B0
:10120000615070400110D8F7809590958E0F9F1F08
:101210000895FC016150704001900110D8F780954D
:1012200090958E0F9F1F08950F931F93CF93DF9379
:101230008C01EB018B8181FF1BC082FF0DC02E81D1
:101240003F818C819D812817390764F4E881F981F9
:101250000193F983E88306C0E885F985802F099515
:10126000892B31F48E819F8101969F838E8302C0EA
:101270000FEF1FEFC801DF91CF911F910F910895DC
:10128000FA01AA27283061F1203191F1E8946F9397
:101290006E7F6E5F7F4F8F4F9F4FAF4FB1E040D05B
:1012A000B4E03ED0670F781F891F9A1FA11D680FF9
:1012B000791F8A1F911DA11D6A0F711D811D911D2E
:1012C000A11D22D009F468943F91062E000C30191C
:1012D000000C000C3019305D3193CEF6CF0108952B
:1012E000462F4770405D4193B3E00FD0C9F7F6CF6A
:1012F000462F4F70405D4A3318F0495D31FD405232
:10130000419302D0A9F7EACFB4E0A69597958795C7
:1013100077956795BA95C9F70097610571050895A6
:101320009B01AC010A2E0694579547953795279552
:10133000BA95C9F7620F731F841F951FA01D0895EA
:101340002F923F924F925F926F927F928F929F92D5
:10135000AF92BF92CF92DF92EF92FF920F931F93C3
:10136000CF93DF93CDB7DEB7CA1BDB0B0FB6F89474
:10137000DEBF0FBECDBF09942A88398848885F84B4
:101380006E847D848C849B84AA84B984C884DF8025
:10139000EE80FD800C811B81AA81B981CE0FD11D09
:1013A0000FB6F894DEBF0FBECDBFED010895F894DF
:0213B000FFCF6D
:1013B2005B25645D0D0A00000110000002100000B0
:1013C200030800000000000000000000000000020E
:1013D20004100000051000000608000000000000D4
:0813E200000000000000000003
:00000001FF
