S0160000696D6167652F636865636B726F6D2E7372656390
S1134000219942CD954301FFFEED49CD3040CD6D60
S113401040CD9440CDB940CD0041CD5240CD514129
S1134020CD5240CD0041CD5240218443CD9543C76C
S113403021AF42CD9543ED410421AB00ED69ED6123
S1134040ED61ED61ED78ED78CD9E43CDEE4105ED6A
S113405049C9215543CD9543ED41043E05ED79ED24
S113406078ED78CD9E43CDEE4105ED49C921CD4291
S1134070CD9543ED4104219000ED69ED61ED61EDD5
S113408061ED78ED78CD9E43ED78CD9E43CDEE4144
S113409005ED49C921DF42CD9543ED41043E9FED35
S11340A079ED78ED78CD9E43ED78CD9E43ED78CDD6
S11340B09E43CDEE4105ED49C921F542CD9543ED31
S11340C04104214B00ED69ED61ED61ED61ED61EDC0
S11340D078ED78CD9E43ED78CD9E43ED78CD9E432B
S11340E0ED78CD9E43ED78CD9E43ED78CD9E43EDA6
S11340F078CD9E43ED78CD9E43CDEE4105ED49C983
S1134100216943CD9543ED4104210300ED69ED613F
S1134110ED61ED61ED786C7DE60F201C3E0DCDB5B3
S1134120433E0ACDB5437CCD9E437DCD9E433E3A6E
S1134130CDB5433E20CDB543ED7857CD9E433E20CB
S1134140CDB543231420D005ED49C9218143C3953E
S113415043210743CD9543ED4104110300210000A1
S1134160ED59ED51ED61ED69ED78ED783C280F23C3
S11341707CE63FB520F4212143CD9543186C7CCDDA
S11341809E437DCD9E4305ED49ED41041E06ED5948
S113419005ED49ED41041E02ED59ED51ED61ED6966
S11341A03E0DED793E0AED797C1F1F1F1FE60FFEC1
S11341B00ADE6927ED797CE60FFE0ADE6927ED79D0
S11341C07D1F1F1F1FE60FFE0ADE6927ED797DE6BE
S11341D00FFE0ADE6927ED793E2DED793E78ED7903
S11341E005ED49ED41041E04ED5905ED49C9C93EEB
S11341F020CDB5433E28CDB543ED78CD9E433E203A
S1134200CDB543ED78CD9E433E20CDB543ED78CD7D
S11342109E433E20CDB543ED78CD9E433E20CDB5A3
S113422043ED78CD9E433E20CDB543ED78CD9E43FE
S11342303E20CDB543ED78CD9E433E20CDB543ED34
S113424078CD9E433E20CDB543ED78CD9E433E20B0
S1134250CDB543ED78CD9E433E20CDB543ED78CD2D
S11342609E433E20CDB543ED78CD9E433E20CDB553
S113427043ED78CD9E433E20CDB543ED78CD9E43AE
S11342803E20CDB543ED78CD9E433E20CDB543EDE4
S113429078CD9E433E29C3B5430D0A5465737469B2
S11342A06E6720524F4D20636869702E2E2E000DCC
S11342B00A446F696E672077616B65757020616E63
S11342C0642072656164205245533A20000D0A4609
S11342D065746368696E672052454D533A20000D3A
S11342E00A4665746368696E67204A4544454320FD
S11342F049443A20000D0A53657269616C206E7559
S11343006D6265723A20000D0A4D6F6469667969C1
S11343106E6720736F6D6520646174612E2E2E208C
S1134320000D0A436F756C646E27742066696E64B1
S113433020612023464620616E7977686572652086
S1134340696E2066697273742031364B4220626C48
S11343506F636B21000D0A53746174757320726569
S11343606769737465723A20000D0A437572726549
S11343706E7420524F4D20636F6E74656E74733A81
S1134380000D0A000D0A526573657474696E672E18
S11343902E2E0D0A007EB7C8CDB5432318F7F51F9E
S11343A01F1F1FE60FFE0ADE6927CDB543F1E60F96
S11343B0FE0ADE6927C501DDFAED70F2B9430DEDA1
S10643C079C1C9F3
S9034000BC
